:020000021000EC
:10F00000000001200D71020035710200377102000D
:10F01000397102003B7102003D71020000000000E6
:10F020000000000000000000000000003F7102002E
:10F0300041710200000000004371020045710200AE
:10F04000F9100200477102003D40020047710200C2
:10F050004771020047710200BD29020065170200D6
:10F06000F12002004771020047710200477102005F
:10F0700047710200477102004771020047710200A8
:10F0800047710200F9040200477102004771020053
:10F090003905020047710200757F020047710200C6
:10F0A00047710200477102000D2102004771020002
:10F0B00047710200477102000000000000000000DC
:10F0C0004771020047710200477102004771020058
:10F0D0004771020047710200477102000000000002
:10F0E0000000000000000000000000000000000020
:10F0F0000000000000000000000000000000000010
:10F1000000000000000000000000000000000000FF
:10F1100000000000000000000000000000000000EF
:10F4000010B5054C237833B9044B13B10448AFF35E
:10F4100000800123237010BDA821002000000000FF
:10F4200050810200084B10B51BB108490848AFF3E2
:10F4300000800848036803B910BD074B002BFBD0C0
:10F44000BDE81040184700BF00000000AC210020BC
:10F4500050810200A421002000000000154B002B69
:10F4600008BF134B9D46A3F5803A00218B460F46FB
:10F470001348144A121A00F065F80F4B002B00D005
:10F4800098470E4B002B00D0984700200021040025
:10F490000D000D48002802D00C48AFF3008000F0AA
:10F4A0002BF82000290006F03BFA00F011F800BF0D
:10F4B0000000080000000120000000000000000023
:10F4C000A82100207C28002000000000000000008F
:10F4D00008B5074B044613B10021AFF30080054B7C
:10F4E0001868836A03B19847204600F033F800BFDC
:10F4F000000000007080020070B50E4B0E4CE41A44
:10F50000A41000251E46A54204D056F82530984781
:10F510000135F8E708F0A0FD084C094BE41AA410E7
:10F5200000251E46A54204D056F8253098470135DF
:10F53000F8E770BD9C2100209C210020A021002024
:10F540009C21002002440346934202D003F8011B91
:10F55000FAE77047FEE700BF80B588B000AF78607B
:10F560000023FB774BE02A4B1A68FB7FDB00134438
:10F57000BB61BB691B781A46012393407B61254B15
:10F580001A687B691340002B36D07B69DA43214B24
:10F590001B6813401F4A1360BB691B78184603F0B1
:10F5A000FBF90346FB74BB691B781A4601239340A1
:10F5B0001A46194B1B681340FA7CB96909788A40CE
:10F5C000934219D1FB7CBA695278012A0CBF0122FF
:10F5D0000022D2B293420CBF01230023DBB2FB60B6
:10F5E000BB695B68002B07D0BB695B68BA6912789E
:10F5F000F968C9B210469847FB7F0133FB77074B88
:10F600001B78FA7F9A42AED300BF2037BD4680BD3B
:10F61000C4210020F4210020F0210020C821002076
:10F6200080B584B000AF78600B46FB7001227B6828
:10F6300002FA03F3FB601E4B184601F041F8B86074
:10F64000BB68002B30D11B4B1A68FB681340002BA2
:10F6500022D1786803F0A0F90346002B06D0164BA0
:10F660001A68FB681343144A136006E0FB68DA4328
:10F67000114B1B681340104A13600E4B1A68FB684D
:10F6800013430C4A13600A480C4B1B6800221946AE
:10F6900000F0E2FFB86008E0FB68DA43054B1B6846
:10F6A0001340044A136000E000BF1037BD4680BD20
:10F6B000D0210020F4210020F0210020CC210020C6
:10F6C00080B588B000AFF8600B467A60FB727B684B
:10F6D000042B01D8072349E003F08AF8034683F09E
:10F6E0000103DBB2002B07D003F042F8F861FB699D
:10F6F000002B01D0FB6939E01E4AFB6813601E4AEB
:10F70000FB7A13701D4A7B6813601D4B00221A6040
:10F710001C4B00221A601EE0FB7ADB00FA681344DF
:10F72000BB6103233B7500237B750023BB7500235E
:10F73000FB75BB699B787B75BB691B78184607F125
:10F740001403114A194603F065F8F861FB69002BB0
:10F7500001D0FB690AE0FB7A5A1EFA72002BDBD15A
:10F760000A4A00210A4800F043FF034618462037A2
:10F77000BD4680BDC4210020C8210020CC2100202E
:10F78000F0210020F421002021F6010059F50100AC
:10F790007480020080B582B000AF00237B600CE073
:10F7A0000B4B1A687B68DB0013441B780121184659
:10F7B00003F08AF87B6801337B60064B1B781A469E
:10F7C0007B689A42ECD8002318460837BD4680BDB6
:10F7D000C4210020C821002080B586B000AF786029
:10F7E0000023BB8100233B617B687B6107F10C0335
:10F7F0001A46002144F2010000F018F800BF183743
:10F80000BD4680BD80B400AFBFF34F8F0549054BA7
:10F81000DB6803F4E062044B1343CB60BFF34F8F0C
:10F8200000BFFDE700ED00E00400FA0580B584B0FC
:10F8300000AFF860B9607A60FFF7E4FF00BF1037EF
:10F84000BD4680BD80B485B000AF78607B689B68A2
:10F85000FB607B68DA68FB68D31A18461437BD462C
:10F860005DF8047B704700BF80B483B000AF786060
:10F870000B46FB707B681A687B68DB68796889884F
:10F880000B401344FA781A707B68DB685A1C7B685B
:10F89000DA6000BF0C37BD465DF8047B704700BFDF
:10F8A00080B485B000AFF8600B467A607B81FB685E
:10F8B0001A68FB6899687B890B44F96889880B4052
:10F8C00013441A787B681A7000BF1437BD465DF880
:10F8D000047B704780B582B000AF786039603A68C9
:10F8E00000217868FFF7DCFF7B689B685A1C7B6807
:10F8F0009A6000BF0837BD4680BD00BF80B485B0A8
:10F9000000AFF860B9601346FB80BB68002B01D1E3
:10F910000E2319E0FB88002B05D0FB885A1EFB88BC
:10F920001340002B01D009230EE0FB68BA681A606F
:10F93000FB88013B9AB2FB689A80FB6800229A60C0
:10F94000FB680022DA60002318461437BD465DF8D4
:10F95000047B704780B582B000AF78600B46FB70C7
:10F960007868FFF76FFF02467B689B889A4206D84B
:10F97000FB7819467868FFF777FF002300E004233F
:10F9800018460837BD4680BD80B582B000AF7860AC
:10F9900039607868FFF756FF0346002B05D03968B9
:10F9A0007868FFF797FF002300E005231846083723
:10F9B000BD4680BD80B483B000AF0346FB710949EA
:10F9C00097F907305B09FA7902F01F02012000FA6B
:10F9D00002F241F8232000BF0C37BD465DF8047BDE
:10F9E000704700BF00E100E080B483B000AF034681
:10F9F000FB71094997F907305B09FA7902F01F0298
:10FA0000012000FA02F2203341F8232000BF0C3716
:10FA1000BD465DF8047B704700E100E080B483B030
:10FA200000AF0346FB71094997F907305B09FA7982
:10FA300002F01F02012000FA02F2403341F82320B5
:10FA400000BF0C37BD465DF8047B704700E100E065
:10FA500080B483B000AF0346FB71094997F90730C2
:10FA60005B09FA7902F01F02012000FA02F260330A
:10FA700041F8232000BF0C37BD465DF8047B70477A
:10FA800000E100E080B483B000AF03463960FB7151
:10FA900097F90730002B0BDA0D49FB7903F00F03C0
:10FAA000043B3A68D2B25201D2B20B441A7609E052
:10FAB000084997F907303A68D2B25201D2B20B44E2
:10FAC00083F8002300BF0C37BD465DF8047B704708
:10FAD00000ED00E000E100E080B483B000AF7860AA
:10FAE0007B6803F00303002B0CBF01230023DBB270
:10FAF00018460C37BD465DF8047B704780B485B06E
:10FB000000AF7860254BFB607B68002B40D0244B16
:10FB10001A68F9687B6800BF00BF00BF00BF00BF64
:10FB200000BF00BF00BF8A422FD000BF00BF00BF90
:10FB300000BF00BF00BF00BF00BF00BF00BF00BFCD
:10FB400000BF00BF00BF00BF00BF00BF00BF00BFBD
:10FB500000BF00BF00BF00BF00BF00BF00BF00BFAD
:10FB600000BF00BF00BF00BF00BF00BF00BF00BF9D
:10FB700000BF00BF00BF00BF00BF00BF00BF00BF8D
:10FB800000BF00BF00BF00BF00BF013BC3D17B600F
:10FB900000BF1437BD465DF8047B70470024F400B5
:10FBA0009821002080B582B000AF7860054A7B685C
:10FBB000C2F8083507211120FFF764FF00BF08379E
:10FBC000BD4680BD0010014080B500AF0D4B4FF425
:10FBD0008032C3F844230B4B4FF48032C3F8042324
:10FBE0001120FFF735FF1120FFF7E4FE054B01223E
:10FBF0001A602F20FFF782FF034B01221A7000BF0B
:10FC000080BD00BF001001401822002080B500AF69
:10FC10001120FFF7E9FE0F4B4FF48032C3F8482361
:10FC20000C4B4FF48032C3F808230A4B01225A6070
:10FC30002F20FFF763FF074B01229A60064B00223B
:10FC40001A602F20FFF75AFF044B00221A7000BFE2
:10FC500080BD00BF001001400422002018220020B7
:10FC600080B400AF034BD3F804351846BD465DF8A9
:10FC7000047B70470010014080B483B000AF78600F
:10FC800039607A683B68D31A23F07F4318460C37F3
:10FC9000BD465DF8047B704780B483B000AF7860E8
:10FCA000044A7B68C2F8403500BF0C37BD465DF89A
:10FCB000047B70470010014080B487B000AF7860CB
:10FCC000294B1B68002B03D1274A7B68136045E052
:10FCD0007B681A68244B1B681B689A4210D8224B19
:10FCE0001B68214A126811687A6812688A1A1A60B9
:10FCF0001D4B1A687B68DA611B4A7B6813602DE034
:10FD00007B681B68FB60184B1B687B61164B1B688C
:10FD10003B6109E03B691B68FA68D31AFB603B69E9
:10FD20007B613B69DB693B613B69002B04D03B692C
:10FD30001A68FB689A42EDD33B69002B05D03B69FA
:10FD40001A68FB68D21A3B691A607B68FA681A6005
:10FD50007B683A69DA617B697A68DA6100BF1C37CF
:10FD6000BD465DF8047B70470022002080B487B058
:10FD700000AF7860234B1B687B617B693B6108E0C7
:10FD80003A697B689A4208D03B697B613B69DB69D1
:10FD90003B613B69002BF3D100E000BF3B69002BC6
:10FDA00029D07A693B699A4211D1164B1B68DB69ED
:10FDB000144A1360134B1B68002B08D1124B01220D
:10FDC0009A60124B00221A60114B01221A703B6993
:10FDD0001B68FB603B69DA697B69DA617B69DB6917
:10FDE0003B613B69002B07D03B691A68FB681A44EA
:10FDF0003B691A6000E000BF1C37BD465DF8047B1C
:10FE0000704700BF002200200010014004220020A3
:10FE10001922002080B500AF1120FFF7FFFD00BFC1
:10FE200080BD00BF80B500AF1420FFF7F7FD00BF15
:10FE300080BD00BF80B584B000AF78600F4B1B68F9
:10FE4000002B11D00D4B1B687A6850697A68926953
:10FE500011469847F860FB68BB60BB68002B09D06F
:10FE6000B868FFF7B9FC05E07B685B697A6892695E
:10FE70001046984700BF1037BD4680BD14220020B1
:10FE800080B584B000AF2B4B1B68002B4ED00023F5
:10FE90007B60FFF7E5FE0246274B1B6819461046BC
:10FEA000FFF7EAFEB860234B1B68FB601DE0FB68B0
:10FEB0001A68BB689A421CD8FB681B68BA68D31AD8
:10FEC000BB60FB681B687A6813447B60FB683B601F
:10FED000FB68DB69FB603B681B7C002B05D03B6843
:10FEE00000221A743868FFF7A5FFFB68002BDED1EB
:10FEF00000E000BF114B1A78114B1B789A420CD1CD
:10FF00000F4B1B780133DAB20D4B1A700C4B1B7878
:10FF1000022B02D10A4B00221A70094B1B7819469A
:10FF2000084A7B6842F82130FFF77CFF00BF10379A
:10FF3000BD4680BD002200200422002010220020A7
:10FF4000112200200822002080B483B000AF786026
:10FF5000194B1A78194B1B789A4223D0164B1B78F1
:10FF60000133DAB2144B1A70134B1B78022B02D1F7
:10FF7000114B00221A70104B1B781A46104B53F885
:10FF800022207B681A607B681A680E4B1B6813443A
:10FF90000C4A13600B4B1B6823F07F43094A136024
:10FFA000012303E07B6800221A60002318460C3707
:10FFB000BD465DF8047B704710220020112200200E
:10FFC000082200200422002080B584B000AF244B1A
:10FFD0001B78FB73234B1B68BB602FE0204B5968D9
:10FFE000FA7B13465B001344DB000B447B60FB7B16
:10FFF0000133FB731A4B9B78FA7B9A4201D10023A1
:020000022000DC
:10000000FB737B681B78022B02D0032B10D014E00B
:100010007B685B681846FFF7A9FE0FE0114B1B6871
:100020003B603B6800221A743B68DB690D4A136031
:100030000C4B1B68002BF1D100E000BF084B5B7834
:10004000FA7B9A42CAD1074B1A68BB689A4214BF1E
:1000500001230023DBB218461037BD4680BD00BF28
:10006000F82100200022002080B489B000AFF860A1
:10007000B9607A600023FB6138E0214B1B68BB61EB
:10008000BB691A68FB689A4206D9BB691A68FB68A3
:10009000D21ABB691A602DE0BB691B68FA68D31AD3
:1000A000FB60BB691B68FA691344FB61BB690022F2
:1000B0001A60134B1B687B61BB69DB69104A1360D4
:1000C000BB69DB68002B11D0BA68FB69134423F0CD
:1000D0007F42BB695A60BB69DA68BB699A607B681A
:1000E0001A68BB69DA617B687A691A60044B1B681D
:1000F000002BC2D100BF2437BD465DF8047B70479A
:100100000022002080B586B000AF7860504B1B689D
:100110003B6185E07B68002B05D07B687B617B6958
:10012000DB697B603CE04B4B5A684A4B1B781946B5
:100130000B465B000B44DB001344FB60454B1B7814
:100140000133DAB2434B1A70424B1A78414B9B7819
:100150009A4202D13F4B00221A70FB685B687B61B8
:10016000FB681B78012B5BD17B691B7C002B00D0CB
:1001700056E0FB689A687B695A60FB68DA687B69BD
:100180009A60FB681A697B69DA60FB685A697B6967
:100190009A61314B1B78002B02D07B6900225A6098
:1001A0007B695A682D4B1B68D31A23F07F432C4A76
:1001B00093420ED87B695A68284B1B681946104633
:1001C000FFF75AFD02467B699B681A447B691A60F7
:1001D00017E0224B1A687B695B6819461046FFF7E7
:1001E0004BFDB8607B699A68BB689A4206D97B6907
:1001F0009A68BB68D21A7B691A6002E07B690022A8
:100200001A607B6900225A607B6900229A607B69D0
:1002100001221A747B690022DA617869FFF74CFDCC
:100220007B68002B7FF476AF0A4B1A78094B5B781A
:100230009A427FF46FAF064B1A683B699A4214BF2B
:1002400001230023DBB218461837BD4680BD00BF2E
:1002500000220020F8210020192200200422002082
:10026000FEFF7F0090B589B000AF7860274B1B6818
:10027000002B44D0254B1B681B68FB61FFF7F0FC8B
:10028000B861234B1B687B617969B869FFF7F4FC9F
:10029000034603333B611F4B1B7883F00103DBB242
:1002A000002B01D0FFF790FC3A69FB69934238BFFD
:1002B00013467A6913447B617B6923F07F437B613A
:1002C0007869FFF7E9FCFFF7CBFCF860B969F868DB
:1002D000FFF7D2FC0346DC1CB9697869FFF7CCFC58
:1002E00003469C420DD9FFF7BBFC03461846FFF7B7
:1002F000D3FC2F20FFF702FCFFF78CFD01E0FFF796
:1003000085FC00BF2437BD4690BD00BF0022002001
:10031000042200201822002080B586B000AF002300
:100320007B60184B1B683B61174B1B68FB603B46AF
:100330001846FFF709FE0346FB72FFF745FE03462A
:10034000FB75FB7A002B07D03B683A1D39691846CC
:10035000FFF78AFE0123FB757B681846FFF7D2FE84
:100360000346002B01D00123FB75FB7D002B02D03F
:10037000F868FFF777FF054B00221A7000BF1837A7
:10038000BD4680BD0422002000220020192200204A
:1003900080B483B000AF0346FB71044AFB7953700D
:1003A00000BF0C37BD465DF8047B7047F821002084
:1003B00080B485B000AF7860134B5B780133FB737A
:1003C000114B9B78FA7B9A4201D10023FB730E4BB1
:1003D0001B78FA7B9A4201D100230EE07B68FA7BFE
:1003E0001A70094B5A68084B5B7819460B465B003C
:1003F0000B44DB001344BB60BB6818461437BD4692
:100400005DF8047B704700BFF821002080B588B0FC
:1004100000AFF860B9607A603B600023FB610023A5
:10042000BB7507F11603184600F06CFB07F11703C4
:100430001846FFF7BDFFB861BB69002B02D104234A
:10044000FB6117E0BB6901221A70BB69FA685A6048
:10045000FFF706FC0246BB699A60BB69BA68DA60BE
:10046000BB697A681A61BB693A685A61FB7D1846B4
:10047000FFF78EFFBB7D184600F050FBFB69002B99
:1004800001D1FFF7CFFCFB6918462037BD4680BD80
:1004900080B586B000AF78600B46FB7000237B61AF
:1004A0000023BB7307F10E03184600F02BFB07F186
:1004B0000F031846FFF77CFF38613B69002B02D120
:1004C00004237B6109E03B69FA781A703B697A681A
:1004D0005A60FB7B1846FFF75BFFBB7B184600F0BA
:1004E0001DFB7B69002B01D1FFF79CFC7B69184643
:1004F0001837BD4680BD00BF80B500AF0D4B002250
:10050000C3F840210B4B0022C3F84421094B0022C1
:10051000C3F84821074B0022C3F84C21054B0022A9
:10052000C3F80021034B0022C3F80421FFF7A8FC05
:1005300000BF80BD0010014080B500AFFFF7ECFEAA
:1005400000BF80BD80B584B000AFF8607A603B60CA
:100550000B46FB727868FFF7BFFA034683F001038E
:10056000DBB2002B01D0072331E07B68002B01D1E7
:1005700007232CE0FFF74AFB174A3B681360174B31
:1005800000221A70154B00225A70144AFB7A93709D
:10059000124A7B685360124B00221A60114B0022F2
:1005A0001A70114B00221A701420FFF751FA07211C
:1005B0001420FFF767FA1420FFF7FCF9F868FFF73B
:1005C000F1FAFFF74DFB0246084B1A60002318466C
:1005D0001037BD4680BD00BF14220020F821002046
:1005E00000220020102200201122002004220020DE
:1005F00080B487B000AFF8600B467A60FB72154B91
:100600005B68002B01D108231DE07B68002B01D122
:10061000072318E0FB68002B01D1072313E0FB68D8
:100620001B681B7C002B01D008230CE0FB681B68B7
:100630007B617B6900221A747B69FA7A5A747B6940
:100640007A685A61002318461C37BD465DF8047B62
:10065000704700BFF821002080B586B000AFF86079
:10066000B9607A60FB687B61144B5B68002B01D139
:1006700008231EE0FB68002B01D1082319E0BB68AA
:10068000042B01D8072314E07B695B69002B01D19F
:1006900008230EE07B695B7C012B01D1BB6800E085
:1006A00000233B617B683A69B9687869FFF7AEFE61
:1006B000034618461837BD4680BD00BFF82100200C
:1006C00080B584B000AF78607B68FB600D4B5B68E1
:1006D000002B01D1082310E07B68002B03D0FB68BE
:1006E0005B69002B01D1082307E0FB6800221A7424
:1006F0000221F868FFF7CCFE034618461037BD46C6
:1007000080BD00BFF821002080B485B000AF7860C4
:100710007B689B68FB607B68DA68FB68D31A1846C5
:100720001437BD465DF8047B704700BF80B586B0C6
:1007300000AF786039607B681B78012B04D0022BF6
:1007400038D0002B47D05CE07B685B681B7819468B
:100750002E48FFF7FFF878617B69002B0AD0012350
:100760003B737B693B612A4B1B6807F10C02104607
:1007700098470DE02548FFF7C7FF0346002B07D039
:1007800000233B73224B1B6807F10C02104698476D
:100790001E48FFF7B9FF02461C4B9B889A4205D8BA
:1007A00001221C491C4803F0B3F92AE01B4B01222B
:1007B0001A7026E002233B737B68DB683B610122F1
:1007C0001449154803F0A4F9114B1B6807F10C02FA
:1007D0001046984715E012491248FFF7D5F803462E
:1007E000002B05D101220E490B4802F0B7FF07E0AC
:1007F00003233B73064B1B6807F10C021046984716
:1008000000BF00BF1837BD4680BD00BF28220020B2
:100810001C220020242200208821002025220020E4
:100820002022002038220020B0B58EB000AFF86042
:10083000B9607A60FB703F4A7B681360BB68002B2D
:1008400001D1072372E0BB681968BB685B689BB283
:100850001A463948FFF752F878637B6B002B01D0BA
:100860007B6B63E0BB689968BB68DB689BB21A4628
:100870003248FFF743F878637B6B002B01D07B6B2A
:1008800054E02F4B07F114041D460FCD0FC495E81B
:100890000F0084E80F00FB685B69FB62FB681B7C50
:1008A000002B14BF01230023DBB287F82830FB782C
:1008B00087F83030FB685B7C002B01D00E2300E012
:1008C000002387F82930FB68DB68FB61FB689B68C5
:1008D0003B62FB681B68BB61FB685B687B6107F17F
:1008E0001403184A1946184802F000FE78637B6B1F
:1008F000002B01D07B6B19E0144B00221A70FB68AF
:100900001B68B3F1FF3F10D097F8313083F001033B
:10091000DBB2002B02D00C4803F09CF901220C49F9
:10092000094803F0F5F8034600E00023184638377D
:10093000BD46B0BD1C220020282200203822002005
:10094000788002002D070200882100202522002047
:100950002422002080B586B000AF7860104B1B7851
:10096000FB7579680F48FFF70FF83861FB7D002BA6
:1009700010D00B4B00221A7001220B490B4803F0D8
:10098000C7F8F860FB68BB60BB68002B02D0B86892
:10099000FEF722FF3B6918461837BD4680BD00BFF1
:1009A0002522002028220020242200208821002047
:1009B00080B584B000AF0346FB71FB79194611483E
:1009C000FEF7C8FFF860FB68002B15D10E4802F057
:1009D00013FF034683F00103DBB2002B0CD00B495D
:1009E0000848FEF7D1FF0346002B05D10122074935
:1009F000054802F0B3FEF860FB6818461037BD46A4
:100A000080BD00BF38220020882100202022002045
:100A100080B483B000AFEFF310833B603B687B6032
:100A200072B67B6818460C37BD465DF8047B70478C
:100A300080B400AF62B600BFBD465DF8047B70476E
:100A400080B584B000AF7860FFF7E2FFF860164B26
:100A50009B68002B1BD1144B01229A60134BD3F8D7
:100A60008020134B1340104A1360104B104AC3F8F8
:100A700080200E4BD3F884300B4A53600B4B4FF061
:100A8000FF32C3F884207B6800221A7002E07B6882
:100A900001221A70FB68002B01D1FFF7C9FF002368
:100AA00018461037BD4680BD7028002000E100E0E8
:100AB000FC06FFBC80B584B000AF0346FB710F4B52
:100AC0009B68002B15D0FB79002B12D1FFF7A0FFFC
:100AD000F8600B4A094B1B681360094A074B5B68B7
:100AE0005360064B00229A60FB68002B01D1FFF790
:100AF0009FFF002318461037BD4680BD7028002098
:100B000000E100E080B582B000AF78607868FFF760
:100B100097FF00BF0837BD4680BD00BF80B582B0DB
:100B200000AF0346FB71FB791846FFF7C3FF00BF18
:100B30000837BD4680BD00BF80B483B000AF786089
:100B40007B68002B01D1032304E0054B5A6E7B68C0
:100B50001A60002318460C37BD465DF8047B7047C9
:100B60004822002080B483B000AF78604FF0A043EB
:100B700018460C37BD465DF8047B704780B584B0DD
:100B800000AF7860084611461A460346FB700B46D4
:100B9000BB7013467B703B1D1846FFF7E3FFF86000
:100BA0007A68F978BB785B0019437B789B0019431E
:100BB0003B7E1B0219433B7F1B041943FB6802F574
:100BC000E07243F8221000BF1037BD4680BD00BF61
:100BD00080B584B002AF78600023019300230093B6
:100BE0000023012201217868FFF7C8FF00BF083702
:100BF000BD4680BD80B584B000AF78603B1D18460F
:100C0000FFF7B0FFF8607B68012202FA03F3194690
:100C1000F86800F09BF800BF1037BD4680BD00BFEC
:100C200080B584B000AF78603B1D1846FFF79AFF8F
:100C3000F8607B68012202FA03F31946F86800F0B5
:100C400095F800BF1037BD4680BD00BF80B584B0A9
:100C500000AF78603B1D1846FFF784FFF860FB6823
:100C6000D3F80435BB60BB68DA437B68012101FA25
:100C700003F31A40FB68C3F808257B6801229A40F9
:100C8000BB681A40FB68C3F80C2500BF1037BD468F
:100C900080BD00BF80B582B000AF786039603B682E
:100CA000002B03D17868FFF7BBFF02E07868FFF7FD
:100CB000A1FF00BF0837BD4680BD00BF80B584B02E
:100CC00000AF78603B1D1846FFF74CFFF860F868EE
:100CD00000F020F802467B6822FA03F303F00103D8
:100CE00018461037BD4680BD80B584B000AF78602F
:100CF0003B1D1846FFF736FFF860F86800F018F85B
:100D000002467B6822FA03F303F00103184610370A
:100D1000BD4680BD80B483B000AF78607B68D3F8F7
:100D2000103518460C37BD465DF8047B704700BF90
:100D300080B483B000AF78607B68D3F80435184680
:100D40000C37BD465DF8047B704700BF80B483B0AC
:100D500000AF786039607B683A68C3F8082500BF47
:100D60000C37BD465DF8047B704700BF80B483B08C
:100D700000AF786039607B683A68C3F80C2500BF23
:100D80000C37BD465DF8047B704700BF80B584B06A
:100D900000AF786007231846FFF7A6FF0346002B35
:100DA00014BF01230023FB73FB7B002B14BF012323
:100DB0000023DBB283F00103DBB203F00103DBB2FB
:100DC00018461037BD4680BD80B582B000AF786050
:100DD000072300211846FFF75DFF00BF0837BD4617
:100DE00080BD00BF80B582B000AF786007230121CD
:100DF0001846FFF74FFF00BF0837BD4680BD00BF54
:100E000080B582B000AF00237B6005E07868FFF713
:100E1000E9FF7B6801337B607B68002BF6D000BF65
:100E20000837BD4680BD00BF80B582B000AF00234B
:100E30007B6005E07868FFF7C7FF7B6801337B6064
:100E40007B68002BF6D000BF0837BD4680BD00BFD1
:100E500080B582B000AF786007231846FFF7F6FE32
:100E600000BF0837BD4680BD80B582B000AF00230B
:100E70007B6006E007231846FFF7AAFE7B68013374
:100E80007B607B68002BF5D0FFF7BAFF00BF083707
:100E9000BD4680BD80B584B000AF7860062318469B
:100EA000FFF70CFF0346002B14BF01230023FB7345
:100EB000FB7B002B14BF01230023DBB283F0010373
:100EC000DBB203F00103DBB218461037BD4680BD2C
:100ED00080B485B000AF78604FF0FF33BB60002373
:100EE000FB600AE006231A467B689A4202D1FB683F
:100EF000BB6005E0FB680133FB60FB68002BF1D0B1
:100F0000BB6818461437BD465DF8047B704700BFC8
:100F100080B483B000AF7860062318460C37BD4616
:100F20005DF8047B704700BF80B483B000AF786089
:100F30004FF080427B68C2F8083300BF0C37BD46D3
:100F40005DF8047B704700BF80B485B000AF0346F6
:100F5000FB80FB8803F1804300221A60FB8803F1C9
:100F600080431B68FB60FB6800BF1437BD465DF81B
:100F7000047B704780B483B000AF0346FB80FB88DE
:100F800003F180431B68002B14BF01230023DBB255
:100F900018460C37BD465DF8047B704780B483B0BB
:100FA00000AF0346FB714FF08042FB7903F003036F
:100FB000C2F8183500BF0C37BD465DF8047B70479A
:100FC00080B483B000AF0346FB710C4A97F9073039
:100FD0005B0952F82320FB7903F01F0322FA03F385
:100FE00003F00103002B14BF01230023DBB21846DA
:100FF0000C37BD465DF8047B704700BF00E100E0A0
:1010000080B500AF0020FFF7DBFF034683F001034C
:10101000DBB2002B03D00721002000F02BF900BF2A
:1010200080BD00BF80B582B000AF00237B60144B51
:101030001B78002B02D085237B601BE0104B002225
:101040009A600F4B00225A600D4B00221A610C4B24
:101050000022DA60FFF7D4FF06F016FF034683F0A4
:101060000103DBB2002B02D00120FFF797FF044BF6
:1010700001221A707B6818460837BD4680BD00BF44
:10108000B022002080B485B000AF78607B681B6818
:10109000FB60FB68002B03D0FB681A687B681A6052
:1010A000FB6818461437BD465DF8047B704700BFE7
:1010B00080B584B000AF0346FB71FB79002B02D1F1
:1010C0000B4BFB6001E00B4BFB60F868FFF7DAFFAE
:1010D000B860BB68002B05D0BB685B68FA79104626
:1010E0009847F2E700BF00BF1037BD4680BD00BF84
:1010F000B8220020C022002080B500AF4FF48070DD
:10110000FFF738FF0346002B0CD04FF48070FFF739
:101110001BFF0120FFF708FF0D4B01225A70002032
:10112000FFF7C6FF4FF48270FFF724FF0346002B42
:101130000CD04FF48270FFF707FF0220FFF7F4FE98
:10114000034B01229A700120FFF7B2FF00BF80BD60
:10115000B022002080B582B000AF78607B68002BA1
:1011600002D10020FFF7A4FF00BF0837BD4680BDB5
:1011700080B582B000AF0023FB71FB1D1846FFF75E
:10118000C1FC0C4B1B7883F00103DBB2002B01D0B8
:10119000FFF748FF074BDB680133064AD360054B76
:1011A00001229A70FB791846FFF7B8FC00BF083798
:1011B000BD4680BDB022002080B483B000AF03469E
:1011C000FB71094997F907305B09FA7902F01F02B0
:1011D000012000FA02F241F8232000BF0C37BD467F
:1011E0005DF8047B704700BF00E100E080B483B08D
:1011F00000AF0346FB71094997F907305B09FA799B
:1012000002F01F02012000FA02F2603341F82320AD
:1012100000BF0C37BD465DF8047B704700E100E07D
:1012200080B483B000AF03463960FB7197F9073093
:10123000002B0BDA0D49FB7903F00F03043B3A68EE
:10124000D2B25201D2B20B441A7609E0084997F99A
:1012500007303A68D2B25201D2B20B4483F800236D
:1012600000BF0C37BD465DF8047B704700ED00E021
:1012700000E100E080B582B000AF03460A46FB7192
:101280001346BB71BA7997F9073011461846FFF734
:10129000C7FF97F907301846FFF7A8FF97F90730FF
:1012A0001846FFF789FF00BF0837BD4680BD00BF65
:1012B00080B483B000AF0346FB71064AFB7901217D
:1012C00001FA03F3C2F8043500BF0C37BD465DF8E0
:1012D000047B704700F0014080B485B000AF034646
:1012E000B9607A60FB730949FB7BA233BA6841F8A5
:1012F0003320064AFB7BA233DB0013447A685A6032
:1013000000BF1437BD465DF8047B704700F0014014
:1013100080B483B000AF0346FB71FB79012202FA6F
:1013200003F318460C37BD465DF8047B704700BFD9
:1013300080B582B000AF0346FB71FB791846FFF71A
:10134000E7FF0246054B1340002B14BF0123002387
:10135000DBB218460837BD4680BD00BFFF3F0F0017
:1013600080B483B000AF78607A68064B1340002BDE
:101370000CBF01230023DBB218460C37BD465DF8D5
:10138000047B704700C0F0FF80B582B000AF034619
:10139000FB71FB791846FFF7BBFF03461846FFF7C2
:1013A000DFFF034618460837BD4680BD80B582B0D2
:1013B00000AF0346FB71FB791846FFF7A9FF024611
:1013C000054B1B681340002B14BF01230023DBB225
:1013D00018460837BD4680BDC822002080B582B0BF
:1013E00000AF0346FB71FB791846FFF791FF0246F9
:1013F000044B1B681343034A136000BF0837BD4604
:1014000080BD00BFC822002080B483B000AF094B6C
:101410001B78002B05D1074B01221A7000237B603B
:1014200001E085237B607B6818460C37BD465DF87C
:10143000047B7047C422002080B586B000AF78607E
:1014400000237B610023FB6004237B61224BFB6054
:101450000023FB7435E00023FB7207F10B031846F1
:10146000FFF750FBFB7C1846FFF752FF0246FB6874
:101470001340002B12D0FB7C1846FFF797FF034662
:1014800083F00103DBB2002B08D0FB7C1846FFF78A
:10149000A5FF7B68FA7C1A7000237B61FB7A1846F3
:1014A000FFF73CFB7B69002B0FD0FB7C1846FFF756
:1014B0002FFF0346DB43FA681340FB60FB7C0133DC
:1014C000FB74FB68002BC6D100E000BF7B691846A7
:1014D0001837BD4680BD00BFFF3F0F0080B586B006
:1014E00000AF0346B9607A60FB73BB68002B01D183
:1014F0000E2327E07B68002B01D10E2322E000237E
:101500007B61FB7B1846FFF713FF034683F0010363
:10151000DBB2002B02D007237B6112E0FB7B184675
:10152000FFF744FF034683F00103DBB2002B02D038
:1015300008237B6105E0FB7B7A68B9681846FFF7F2
:10154000CBFE7B6918461837BD4680BD80B584B098
:1015500000AF0346FB710023FB60FB791846FFF7E1
:1015600013FF034683F00103DBB2002B02D00723F5
:10157000FB6017E0FB791846FFF7DAFE0346002B05
:101580000CD0FB791846FFF711FF034683F00103E7
:10159000DBB2002B02D00823FB6003E0FB79184686
:1015A000FFF786FEFB6818461037BD4680BD00BFBA
:1015B00080B483B000AF0346FB71FB7903F1804335
:1015C00003F5E04301221A6000BF0C37BD465DF809
:1015D000047B704780B483B000AF0346FB71FB7996
:1015E00003F1804303F5E04318460C37BD465DF830
:1015F000047B704780B483B000AF0346FB80FB8858
:1016000003F1804303F5E0431B68002B14BF012363
:101610000023DBB218460C37BD465DF8047B7047EB
:1016200080B485B000AF0346FB80FB8803F18043A4
:1016300003F5E04300221A60FB8803F1804303F5C1
:10164000E0431B68FB60FB6800BF1437BD465DF8D4
:10165000047B704780B483B000AF0346FB710B4638
:10166000BB7113467B710A49FB797A7951331B01AF
:101670000B4404331A600649FB79BA7951331B01D4
:101680000B441A6000BF0C37BD465DF8047B704701
:101690000070004080B483B000AF7860044A7B687B
:1016A000C2F8043300BF0C37BD465DF8047B7047B9
:1016B0000070004080B483B000AF7860044A7B685B
:1016C000C2F8083300BF0C37BD465DF8047B704795
:1016D0000070004080B400AF044B0122C3F8002525
:1016E00000BFBD465DF8047B704700BF007000403E
:1016F00080B483B000AF78603960074A7B68C2F875
:101700002C36054A3B68C2F8303600BF0C37BD4660
:101710005DF8047B704700BF0070004080B483B068
:1017200000AF0346FB71054AFB79C2F8F03500BFF4
:101730000C37BD465DF8047B704700BF0070004069
:1017400080B483B000AF0346FB71054AFB79C2F851
:10175000F43500BF0C37BD465DF8047B704700BF11
:101760000070004080B58CB000AF4FF48270FFF77E
:1017700041FF0346002B42D04FF48270FFF750FF29
:10178000984B93F82B3083F00103DBB2002B04D18C
:10179000944B93F82C30002B31D000233B76914BA7
:1017A0005B68FB618F4B1B899BB23B848D4BDB6875
:1017B000002B04D18B4B002283F8292015E0894BA4
:1017C000DB68884A5360874B9A8A864B1A81854B1F
:1017D0000022DA60834B93F82B3083F00103DBB2F5
:1017E000002B02D00020FFF7E3FE7E4B1B6807F1C1
:1017F0001802104698477B4B002283F82C20794B27
:1018000093F82B30002B00F085804FF48070FFF7A9
:10181000F1FE0346002B7DD04FF48070FFF700FFF0
:10182000704BDB8A002B1DD16E4B1B899AB26D4B1E
:1018300093F82A309BB2D31A9AB26A4BDA82694B78
:101840005A68684B1B899BB21946664BDB8ACB1AD8
:101850005B001A44634B93F82A3019461046FFF791
:1018600047FF50E05F4BDA8A5E4B93F82A309BB219
:101870009A421CD95B4BDA8A5A4B93F82A309BB2B6
:10188000D31A9AB2574BDA82564B5A68554B1B897A
:101890009BB21946534BDB8ACB1A5B001A44514B5F
:1018A00093F82A3019461046FFF722FF2BE04D4BE4
:1018B000DA8A4C4B93F82A309BB29A4214D1494BA6
:1018C000DB68002B10D0474B012283F82C20454BBE
:1018D0000022DA82434BDA68424B93F82A301946E9
:1018E0001046FFF705FF0EE03E4BDA8A3D4B93F8BA
:1018F0002A309BB29A4206D13A4B012283F82C201F
:10190000384B0022DA824FF48270FFF789FE042000
:10191000FFF74EFE4FF48870FFF76CFE0346002B76
:101920000FD04FF48870FFF77BFE2E4B002283F818
:10193000292002233B732B4B1B6807F10C02104636
:1019400098474FF48A70FFF755FE0346002B08D0E6
:101950004FF48A70FFF764FE224B002283F829209F
:101960003CE0204B1B69FB6235E0FB6AB3FA83F372
:10197000BB624FF00042BB6A22FA03F3DB43FA6A10
:101980001340FB62BB6A9BB246339BB29B00FB8455
:10199000FB8C1846FFF72EFE0346002B1BD0FB8C5A
:1019A0001846FFF73DFE01233B70FB8CA3F58C73BB
:1019B000DB08DBB23B71FB8CA3F58C7303F00403F3
:1019C000002B0CBF01230023DBB27B71054B1B688E
:1019D0003A4610469847FB6A002BC6D100BF303705
:1019E000BD4680BDCC22002080B584B000AF7860B9
:1019F00039602E4B93F82830002B03D00823FB606E
:101A0000FB684EE03B68002B03D10723FB60FB68BB
:101A100047E07B68002B01D1254B7B60234A3B6864
:101A200013607B681B781846FFF778FE7B685B784D
:101A30001846FFF785FE7B68DA781C4B83F82B206D
:101A40001A4B012283F82820184B002283F8292002
:101A5000164B002283F82A20144B00221A61134BE4
:101A6000002283F82C206FF00040FFF723FE4FF494
:101A70008270FFF7D5FD7B689B7819460720FFF73A
:101A8000F9FB0220FFF706FE084B93F82B30002BE2
:101A900002D00120FFF7FEFDFFF71CFE0023FB60D4
:101AA000FB6818461037BD4680BD00BFCC22002021
:101AB0009880020080B584B000AF03463960FB71A6
:101AC0001D4B93F82930002B03D01123FB60FB68DA
:101AD0002EE0FB79184A0C3312F81330002B07D193
:101AE000154B93F82A300133DAB2134B83F82A20CE
:101AF000FB793A68D179104A0C3302F81310FB795C
:101B00003A68117A0C4A0C335B0013440A465A7047
:101B1000FB793968184602F0C7FA3B68D9793B6807
:101B20001A7AFB791846FFF795FD0023FB60FB68E6
:101B300018461037BD4680BDCC22002080B500AFCE
:101B4000064B93F82B30002B01D0002300E0042338
:101B50001846FFF73FFD0346184680BDCC22002003
:101B600080B584B000AF78600B467B801220FFF711
:101B7000A1FD3C4B93F82930022B06D11220FFF730
:101B800089FD1123FB60FB6867E0364B93F8293031
:101B9000012B33D1334BDB68002B06D00220FFF73B
:101BA00079FD1123FB60FB6857E02E4A7B68D36008
:101BB0002C4A7B8893822B4B93F82B3083F00103C4
:101BC000DBB2002B13D000BF4FF48070FFF712FD83
:101BD000034683F00103DBB2002BF5D14FF4807094
:101BE000FFF71EFD7B8819467868FFF781FD02200C
:101BF000FFF750FD0023FB60FB682EE00220FFF79B
:101C000049FD184B012283F82920164A7B6853604E
:101C1000144A7B881381134B0022DA60114B93F82E
:101C20002B30002B0AD00F4A7B88D3820D4B93F8C0
:101C30002A3019467868FFF75BFD0BE07B88194670
:101C40007868FFF755FD4FF48070FFF7E9FC00203E
:101C5000FFF7AEFC0023FB60FB6818461037BD465B
:101C600080BD00BFCC22002080B483B000AF78607C
:101C70000B46FB70FB787A68134401221A6000BFA0
:101C80000C37BD465DF8047B704700BF80B485B05B
:101C900000AF78600B467B807B887A681344002213
:101CA0001A607B887A6813441B68FB60FB6800BF7E
:101CB0001437BD465DF8047B704700BF80B483B025
:101CC00000AF78600B467B807B887A6813441B6882
:101CD000002B14BF01230023DBB218460C37BD468E
:101CE0005DF8047B704700BF80B483B000AF7860BC
:101CF00039607B68D3F800223B681A437B68C3F8DD
:101D0000002200BF0C37BD465DF8047B704700BF62
:101D100080B483B000AF786039607B68D3F800226C
:101D20003B68DB431A407B68C3F8002200BF0C37D6
:101D3000BD465DF8047B704780B483B000AF786027
:101D400039607B683A68C3F8042300BF0C37BD468E
:101D50005DF8047B704700BF80B483B000AF78604B
:101D600039607B683A68C3F8082300BF0C37BD466A
:101D70005DF8047B704700BF80B483B000AF78602B
:101D800039607B68D3F804233B681340002B14BFF1
:101D900001230023DBB218460C37BD465DF8047BF7
:101DA000704700BF80B483B000AF78600B46FB7013
:101DB0007B68D3F8043523F00302FB7803F00303B8
:101DC0001A437B68C3F8042500BF0C37BD465DF895
:101DD000047B704780B483B000AF78600B46FB7023
:101DE0007B68D3F8083523F00302FB7803F0030384
:101DF0001A437B68C3F8082500BF0C37BD465DF861
:101E0000047B704780B483B000AF78600B46FB70F2
:101E10007B68D3F8103523F00F02FB7803F00F0333
:101E20001A437B68C3F8102500BF0C37BD465DF828
:101E3000047B704780B485B000AFF8600B467A60D1
:101E4000FB72FA7AFB6802F5A872796843F82210EF
:101E500000BF1437BD465DF8047B704780B483B083
:101E600000AF78607B689BB250339BB29B009BB203
:101E700018460C37BD465DF8047B704780B483B0CC
:101E800000AF78604FF480327B6802FA03F31846A3
:101E90000C37BD465DF8047B704700BF80B485B049
:101EA00000AF78607B681B0BFB7397F90F30184607
:101EB0001437BD465DF8047B704700BF90B589B00C
:101EC00000AFF860B9607A60FB681B791A46134668
:101ED0005B0013449B002F4A1344BB61BB691B7A10
:101EE000002B03D008237B617B694EE07B68002BCD
:101EF00003D107237B617B6947E0BB697A681A607D
:101F0000BB685A68BB695A600023FB770DE0FB6829
:101F10001C68FB7F1846FFF7A1FF034619462046C1
:101F2000FFF7B4FEFB7F0133FB77FB685B79FA7F39
:101F30009A42ECD3FB681B681846FFF7AFFF0346D5
:101F40001A46BB68DB7819461046FFF793F9FB6821
:101F50001A68BB685B7819461046FFF723FFFB68D9
:101F60001A68BB689B7819461046FFF733FFFB6879
:101F70001A68BB681B7819461046FFF743FFBB6918
:101F800001221A7200237B617B6918462437BD4603
:101F900090BD00BFFC22002080B582B000AF786009
:101FA0007B681B6800211846FFF75EFE7B681B7983
:101FB0001946064A0B465B000B449B00134408334A
:101FC00002221A7000BF0837BD4680BDFC220020E7
:101FD00080B586B000AFF8607A601A460B46FB7297
:101FE0001346BB72FB7A1846FFF748FF7861BB7A4D
:101FF000002B06D0FB681B6879691846FFF79CFE2A
:1020000005E0FB681B6879691846FFF7A5FEFB68C9
:102010001B68F97A7A681846FFF70CFF00BF18377B
:10202000BD4680BD80B584B000AFF8607A601A46C6
:102030000B46FB7213463B81FB681868FB7A4FF432
:1020400080729A40FB7A012101FA03F31343194687
:10205000FFF75EFEFB681B683A8911461846FFF7DA
:1020600043FE3B7EF97A7A68F868FFF7B1FF00BF5C
:102070001037BD4680BD00BF80B586B000AFF860A8
:10208000B9601346FB710023FB7528E0FB7D184601
:10209000FFF7E4FE0346BB82FB7D1846FFF7EEFE2A
:1020A0003861BB8A1946F868FFF708FE0346002B23
:1020B00012D03969F868FFF75FFE0346002B0BD09A
:1020C000BB8A1946F868FFF7E1FDBB681B68BA6870
:1020D0005168BA8A10469847FB7D0133FB75FA7D3B
:1020E000FB799A42D2D300BF1837BD4680BD00BFEE
:1020F00080B500AF042203490348FFF7BDFF00BFCE
:1021000080BD00BFFC2200200080004080B500AFF1
:10211000062203490348FFF7AFFF00BF80BD00BFA1
:102120000823002000A0014080B582B000AF034624
:10213000FB80FB88184600F025F803461B68012B3E
:102140000CBF01230023DBB218460837BD4680BD13
:1021500080B584B000AF0346FB80FB88184600F0D2
:1021600011F803461A4600231360FB88184600F056
:1021700009F803461B68FB60FB6800BF1037BD46CB
:1021800080BD00BF80B483B000AF0346FB80FB88F6
:1021900003F1804303F5C04318460C37BD465DF894
:1021A000047B704780B483B000AF7860044A7B68DA
:1021B000C2F8043300BF0C37BD465DF8047B70479E
:1021C0000060004080B483B000AF7860054BD3F866
:1021D00004237B68134018460C37BD465DF8047B2A
:1021E000704700BF0060004080B483B000AF7860EB
:1021F0000949094A7B6803F5A27352F8233043F07A
:1022000001027B6803F5A27341F8232000BF0C375D
:10221000BD465DF8047B70470060004080B485B027
:1022200000AFF860B9601346FB711649154AFB68A8
:1022300003F5A27352F8233023F4473323F4407399
:10224000FA6802F5A27241F822300E480D4AFB6886
:1022500003F5A27352F82320BB681B0203F4F85164
:10226000FB791B0403F440330B431A43FB6803F56B
:10227000A27340F8232000BF1437BD465DF8047BED
:10228000704700BF0060004080B483B000AF78604A
:10229000074A7B6803F5A27352F8233003F4F8531E
:1022A0001B0A18460C37BD465DF8047B704700BF1B
:1022B0000060004080B483B000AF7860074A7B685C
:1022C00003F5A27352F8233003F440331B0CDBB246
:1022D00018460C37BD465DF8047B7047006000402F
:1022E00080B483B000AF78604FF0A04318460C373D
:1022F000BD465DF8047B704780B584B000AF786060
:10230000084611461A460346FB700B46BB7013463F
:102310007B703B1D1846FFF7E3FFF8607A68F97899
:10232000BB785B0019437B789B0019433B7E1B0203
:1023300019433B7F1B041943FB6802F5E07243F825
:10234000221000BF1037BD4680BD00BF80B584B0ED
:1023500002AF78600B46FB70FA78002301930023EC
:1023600000931346002200217868FFF7C5FF00BFE5
:102370000837BD4680BD00BF80B584B000AF78602F
:102380003B1D1846FFF7ACFFF8607A68FB6802F562
:10239000E07253F8223023F00203BB607A68FB68D6
:1023A00002F5E072B96843F8221000BF1037BD464D
:1023B00080BD00BF80B584B000AF78600B46FB7075
:1023C0003B1D1846FFF78CFFF8607A687968FB6858
:1023D00001F5E07153F8213023F44031FB6802F538
:1023E000E07243F822107A687968FB6801F5E071C1
:1023F00053F82130F97809041943FB6802F5E072BB
:1024000043F8221000BF1037BD4680BD80B584B0B0
:1024100000AF78603B1D1846FFF762FFF860F86870
:1024200000F022F802467B6822FA03F303F001036E
:1024300018461037BD4680BD80B584B000AF7860C7
:102440003B1D1846FFF74CFFF8607A68FB6802F501
:10245000E07253F8223003F440331B0CDBB2184611
:102460001037BD4680BD00BF80B483B000AF786038
:102470007B68D3F8103518460C37BD465DF8047BF1
:10248000704700BF80B586B000AFF860B9607A6071
:102490004FF0A0433B61FB687B6112E07B699B00CE
:1024A00007F11802134453F8083C1846FFF7DCFF05
:1024B00002467B681A607B6804337B607B6901336A
:1024C0007B61FA68BB681A447B699A42E6D800BF10
:1024D0001837BD4680BD00BF80B485B000AF7860BE
:1024E00039603B68FB607B68DB08BB607B6803F09E
:1024F00007037B6001227B6802FA03F3F968BA687C
:102500000A441278134018461437BD465DF8047B20
:10251000704700BF80B485B000AF786039603B6819
:10252000FB607B68DB08BB607B6803F007037B60B4
:10253000FA68BB681344F968BA680A44127851B261
:1025400001207A6800FA02F252B20A4352B2D2B2C1
:102550001A7000BF1437BD465DF8047B704700BF9A
:1025600080B483B000AF78600D4A7B681344303389
:1025700093F90030002B09DB094A7B6813443033A0
:1025800093F90030072B01DC012300E0002303F066
:102590000103DBB218460C37BD465DF8047B70477B
:1025A0001423002080B483B000AF7860084A7B68B1
:1025B0001344303393F90030072BCCBF01230023A1
:1025C000DBB218460C37BD465DF8047B704700BF90
:1025D0001423002080B483B000AF7860074A7B6882
:1025E0001344303393F90030DB43DBB2DB09DBB259
:1025F00018460C37BD465DF8047B70471423002055
:1026000080B485B000AFF860B9607A60FB70BB68D9
:1026100059B2104AFB68134430330A461A700D4908
:10262000BB687A6841F82320FB7883F00103DBB2B2
:10263000002B08D0BB68083BFA6851B2054A134426
:102640000A4683F8502000BF1437BD465DF8047B6E
:10265000704700BF1423002080B483B000AF7860BF
:10266000054A7B6813443033FF221A7000BF0C37D1
:10267000BD465DF8047B70471423002080B483B00E
:1026800000AF7860054A7B681344303393F900301B
:1026900018460C37BD465DF8047B704714230020B4
:1026A00080B483B000AF7860044A7B6852F823306E
:1026B00018460C37BD465DF8047B70471423002094
:1026C00080B588B000AFF860B9601346FB71FF2396
:1026D000FB77FB79002B01D0002300E008237B610E
:1026E000FB79002B01D0082300E00C233B617B69C0
:1026F000BB6112E00E4ABB6952F82330B3F1FF3FD1
:1027000008D1FB79BA68B969F868FFF779FFBB6946
:10271000FB7706E0BB690133BB61BA693B699A424A
:10272000E8D397F91F3018462037BD4680BD00BF5B
:102730001423002080B483B000AF0346FB71FB7903
:102740000A4A4FF0FF3142F82310FB79072B06D9D4
:10275000FB79083B054A1344FF2283F8502000BF51
:102760000C37BD465DF8047B704700BF1423002082
:1027700080B582B000AF1D4B93F85430002B03D0CE
:1027800008233B603B682CE00023FB7106E0FB79EB
:102790001846FFF761FFFB790133FB71FB791F2BB3
:1027A000F5D90023FB7106E0FB791846FFF7C2FF5D
:1027B000FB790133FB71FB790B2BF5D9072106203F
:1027C000FEF758FD4FF4BE70FFF7C2FC4FF000401B
:1027D000FFF7E8FC054B012283F8542000233B60FF
:1027E0003B6818460837BD4680BD00BF1423002053
:1027F00080B400AF064B93F85430002B14BF012374
:102800000023DBB21846BD465DF8047B704700BF6D
:102810001423002080B586B000AFF860B9607A60FC
:1028200000237B61F868FFF7D5FE0346002B02D03A
:1028300008237B6140E0BB68DB781A467968F8685A
:10284000FFF73EFF0346FB7497F91330B3F1FF3FE8
:1028500030D0BB689B78002B03D0F868FFF78CFD65
:1028600005E0BB685B781946F868FFF76FFDBB6849
:10287000DB78002B08D097F91300BB681B781A4649
:10288000F968FFF7CBFC17E097F91330083B97F98D
:102890001320083A0B490A4492F95010BA6812788A
:1028A000920152B20A4351B2064A13440A4683F8CF
:1028B000502001E004237B617B6918461837BD4630
:1028C00080BD00BF1423002080B586B000AF7860C3
:1028D0000B46FB707868FFF765FE0346002B27D098
:1028E0007868FFF7CBFE0346083B2A4A134493F966
:1028F0005030BB75BB7D9B097B757B7D032B0AD15B
:102900007868FFF783FD0346002B01D0032300E026
:102910000223FB7506E07B7D012B01D1022300E041
:102920000323FB75FB7D19467868FFF743FD2DE017
:102930007868FFF715FE0346002B27D07868FFF76D
:102940009DFE03463B613B699BB240339BB29B00BB
:10295000FB813B691846FFF747FCFB891846FFF7E8
:10296000F7FBFB78002B11D07868FFF787FE034652
:102970001846FFF795FEB860BB68002B06D0012211
:102980003B6902FA03F31846FFF70CFC00BF183747
:10299000BD4680BD1423002080B582B000AF7860B2
:1029A0007868FFF733FD0346002B14BF0123002393
:1029B000DBB218460837BD4680BD00BF80B594B075
:1029C00000AF0023FB640023FB604FF48073A7F883
:1029D000463001233B640023BB6421E0B7F8463056
:1029E0001846FFF7A1FB0346002B0ED0386CFFF70B
:1029F000E9FB0346002B08D0B7F846301846FFF72E
:102A0000A7FBFA6C3B6C1343FB643B6C5B003B64C1
:102A1000B7F846300433A7F84630BB6C0133BB64CB
:102A2000BB6C072BDAD94FF4BE70FFF77DFB034672
:102A3000002B0ED04FF4BE70FFF78AFBFB6C43F007
:102A40000043FB6407F10C031A4601210020FFF745
:102A500019FDFB6CDBB2002B29D001233B64002362
:102A6000BB6421E03A6CFB6C1340002B16D0B86CB1
:102A7000FFF70AFC7863B86CFFF71CFC034687F885
:102A80003330B86CFFF70CFEF862FB6A002B05D000
:102A900097F83320FB6A1146786B98473B6C5B00D4
:102AA0003B64BB6C0133BB64BB6C072BDAD9FB6C9A
:102AB000002B80F2F180002387F83B300023BB60BD
:102AC0000023FB630BE0FB6B9B0007F150021344F8
:102AD0004FF0FF3243F84C2CFB6B0133FB63FB6B75
:102AE000002BF0D0002387F83B300023BB6474E058
:102AF0006B4ABB6C1344503393F9003087F82B308A
:102B000097F82B3023F0C0037B62654ABB6C1344FB
:102B1000503393F90030B3F1FF3F5BD03B1D1946B2
:102B2000786AFFF7D9FC0346002B53D097F82B3077
:102B30009B0987F82330786AFFF7A0FD0346184603
:102B4000FFF7AEFDF861FB69002B03D197F8233046
:102B5000032B3FD197F82330032B05D107F108034E
:102B60001946786AFFF7D6FC786AFFF765FC0346DA
:102B7000FB7607F10C031946786AFFF7ADFC786124
:102B80007B69002B02D0FB7E022B05D07B69002BDA
:102B900020D1FB7E032B1DD197F82330032B10D1BE
:102BA000FB7E022B01D1032300E00223FB74FB7C9C
:102BB0001946786AFFF7FEFB97F83B30013387F838
:102BC0003B30FB69002B05D097F82320FB691146A9
:102BD000786A9847BB6C0133BB64BB6C032B87D905
:102BE00097F83B30002B52D0012387F83A303B4610
:102BF0001A4601210020FFF745FC0023FB6316E085
:102C0000FB6B9B0007F15002134453F8502CFB6BF5
:102C10009B0007F150010B4453F8443C9A4203D007
:102C2000002387F83A3005E0FB6B0133FB63FB6B55
:102C3000002BE5D097F83A30002B03D0002387F81B
:102C40003B3024E00023FB631EE0FB6B9B0007F19D
:102C50005002134453F8502CFB6B9B0007F15001BA
:102C60000B4443F8442CFB6B9B0007F150021344C8
:102C700053F8482CFB6B9B0007F150010B4443F8C1
:102C80004C2CFB6B0133FB63FB6B002BDDD097F807
:102C90003B30002B7FF426AF00BF5037BD4680BDD0
:102CA0001423002080B485B000AF78600B467B8091
:102CB0007B887A68134400221A607B887A68134400
:102CC0001B68FB60FB6800BF1437BD465DF8047BE2
:102CD000704700BF80B483B000AF78600B467B8044
:102CE0007B887A6813441B68002B14BF01230023E0
:102CF000DBB218460C37BD465DF8047B704700BF59
:102D000080B483B000AF786039607B683A68C3F8FC
:102D1000042300BF0C37BD465DF8047B704700BF3D
:102D200080B483B000AF786039607B68D3F8042347
:102D30003B681340002B14BF01230023DBB218466D
:102D40000C37BD465DF8047B704700BF80B483B08C
:102D500000AF786039607B683A68C3F8082300BF29
:102D60000C37BD465DF8047B704700BF80B485B06A
:102D700000AF78607B68D3F88034FB607B68FA68CA
:102D8000C3F88024FB6818461437BD465DF8047B01
:102D9000704700BF80B483B000AF78607B680422C6
:102DA000C3F8002500BF0C37BD465DF8047B7047B3
:102DB00080B485B000AFF860B9607A60FB687A686B
:102DC000C3F81425FB68BA68C3F80C2500BF143794
:102DD000BD465DF8047B704780B485B000AFF860F5
:102DE000B9607A60FB68BA68C3F80825FB687A683E
:102DF000C3F8102500BF1437BD465DF8047B70474B
:102E000080B483B000AF78607B68D3F81835DBB24C
:102E100018460C37BD465DF8047B704780B483B01C
:102E200000AF78600B46FB70FA787B68C3F81C250E
:102E300000BF0C37BD465DF8047B704780B483B09B
:102E400000AF78600B46FB70FB787A681344012270
:102E50001A6000BF0C37BD465DF8047B704700BFA9
:102E600080B483B000AF78600B46FB701346BB7034
:102E7000FA78BB781343DBB21A467B68C3F86C253B
:102E800000BF0C37BD465DF8047B704780B483B04B
:102E900000AF786039607B683A68C3F8242500BFCA
:102EA0000C37BD465DF8047B704700BF80B485B029
:102EB00000AF78600B467B807B887A6813440022E1
:102EC0001A607B887A6813441B68FB60FB6800BF4C
:102ED0001437BD465DF8047B704700BF80B483B0F3
:102EE00000AF78600B467B807B887A6813441B6850
:102EF000002B14BF01230023DBB218460C37BD465C
:102F00005DF8047B704700BF80B483B000AF786089
:102F100039607B68D3F800223B681A437B68C3F8AA
:102F2000002200BF0C37BD465DF8047B704700BF30
:102F300080B483B000AF786039607B68D3F800223A
:102F40003B68DB431A407B68C3F8002200BF0C37A4
:102F5000BD465DF8047B704780B483B000AF7860F5
:102F600039607B683A68C3F8042300BF0C37BD465C
:102F70005DF8047B704700BF80B483B000AF786019
:102F800039607B683A68C3F8082300BF0C37BD4638
:102F90005DF8047B704700BF80B485B000AF7860F7
:102FA0007B68D3F88034FB607B68FA68C3F88024C0
:102FB000FB6818461437BD465DF8047B704700BFB8
:102FC00080B483B000AF78607B680822C3F8002526
:102FD00000BF0C37BD465DF8047B704780B485B0F8
:102FE00000AFF860B9607A60FB68BA68C3F80C2576
:102FF000FB687A68C3F8142500BF1437BD465DF836
:10300000047B704780B485B000AFF860B9607A6027
:10301000FB68BA68C3F80825FB687A68C3F810250E
:1030200000BF1437BD465DF8047B704780B483B0A1
:1030300000AF78600B46FB70FB787A68134401227E
:103040001A6000BF0C37BD465DF8047B704700BFB7
:1030500080B483B000AF78600B46FB701346BB7042
:10306000FA78BB781343DBB21A467B68C3F86C2549
:1030700000BF0C37BD465DF8047B704780B483B059
:1030800000AF786039607B683A68C3F8242500BFD8
:103090000C37BD465DF8047B704700BF80B485B037
:1030A00000AFF860B9601346FB71BA68FB68C3F8FB
:1030B0004425FA79FB68C3F8482500BF1437BD469C
:1030C0005DF8047B704700BF80B483B000AF7860C8
:1030D0007B68D3F84C3518460C37BD465DF8047B49
:1030E000704700BF80B485B000AFF860B960134688
:1030F000FB71BA68FB68C3F83425FA79FB68C3F83A
:10310000382500BF1437BD465DF8047B704700BF0B
:1031100080B483B000AF78607B68D3F83C35184644
:103120000C37BD465DF8047B704700BF80B485B0A6
:1031300000AF78607B681B0BFB7397F90F30184664
:103140001437BD465DF8047B704700BF80B483B080
:1031500000AF78607B6803F06043B3F1005F0CBFA1
:1031600001230023DBB218460C37BD465DF8047B13
:10317000704700BF80B483B000AF78604FF0A043C9
:1031800018460C37BD465DF8047B704780B584B0A7
:1031900000AF7860084611461A460346FB700B469E
:1031A000BB7013467B703B1D1846FFF7E3FFF860CA
:1031B0007A68F978BB785B0019437B789B001943E8
:1031C0003B7E1B0219433B7F1B041943FB6802F53E
:1031D000E07243F8221000BF1037BD4680BD00BF2B
:1031E00080B584B002AF7860002301930023009380
:1031F0000023012201217868FFF7C8FF00BF0837CC
:10320000BD4680BD80B584B002AF78600B46FB70D0
:10321000FA78002301930023009313460022002133
:103220007868FFF7B3FF00BF0837BD4680BD00BF19
:1032300080B584B000AF78603B1D1846FFF79AFF59
:10324000F8607B68012202FA03F31946F86800F07F
:1032500005F800BF1037BD4680BD00BF80B483B005
:1032600000AF786039607B683A68C3F8082500BF12
:103270000C37BD465DF8047B704700BF80B582B057
:1032800000AF786039603B681B68B3F1FF3F09D03D
:103290003B681B681846FFF7CBFF3B681B68184666
:1032A000FFF79EFF3B685B68B3F1FF3F05D03B68CB
:1032B0005B6800211846FFF7A5FF7B681B79474A2A
:1032C0005B0113441C331B78002B41D07B681A68C8
:1032D0003B689B6919461046FFF7D0FE7B6818686B
:1032E0003B68597D3B681B7D1A46FFF7B1FE7B6842
:1032F00018683B6819683B685B681A46FFF76EFE02
:103300003B681B7D012B64D13B689B68B3F1FF3F99
:1033100005D03B689B6800211846FFF773FF3B68A8
:10332000DB68B3F1FF3F09D03B68DB681846FFF765
:103330007FFF3B68DB681846FFF752FF7B68186821
:103340003B68D9683B689B681A46FFF75BFE40E024
:103350007B681A683B689B6919461046FFF796FD23
:103360007B6818683B68597D3B681B7D1A46FFF7F0
:1033700077FD7B6818683B6819683B685B681A468C
:10338000FFF716FD3B681B7D012B22D13B689B6834
:10339000B3F1FF3F05D03B689B6800211846FFF75B
:1033A00031FF3B68DB68B3F1FF3F09D03B68DB6866
:1033B0001846FFF73DFF3B68DB681846FFF710FF34
:1033C0007B6818683B68D9683B689B681A46FFF7BA
:1033D00003FD00BF0837BD4680BD00BF6C23002041
:1033E00080B582B000AF78600B46FB707B681B79BC
:1033F0002C4A5B0113441C331B78002B2ED07B68B6
:103400001B684FF488711846FFF750FD7B681B68F6
:103410004FF490711846FFF749FD7B681B684FF425
:1034200092711846FFF742FD7B681B684FF4A2714A
:103430001846FFF73BFD7B681B681B491846FFF7E2
:103440008BFD7B681B681846FFF770FE03461A4623
:10345000FB7819461046FDF70DFF1FE07B681B68DF
:103460004FF48E711846FFF71DFC7B681B684FF404
:10347000A2711846FFF716FC7B681B680B491846BB
:10348000FFF73EFC7B681B681846FFF74FFE0346BC
:103490001A46FB7819461046FDF7ECFE00BF0837C8
:1034A000BD4680BD6C230020100302008000020096
:1034B00080B582B000AF78607B681B790A4A5B01F7
:1034C00013441C331B78002B05D07B681B681846FF
:1034D000FFF776FD04E07B681B681846FFF75AFC8F
:1034E00000BF0837BD4680BD6C23002080B586B084
:1034F00000AFF860B9607A60FB681B795B011E4A17
:1035000013447B6100233B617B69DB7E002B03D08E
:1035100008233B613B692BE0BB685A7F7B691A77C4
:10352000B968F868FFF7AAFE7B697A685A60BB68D9
:103530001A697B691A607B695B68002B05D0BB68E0
:103540001B7F1946F868FFF74BFFF868FFF7B0FFDD
:103550007B690022DA757B6900221A767B6900227A
:103560009A757B690122DA767B6900229A763B693B
:1035700018461837BD4680BD6C23002080B584B046
:1035800000AF786039604FF48E717868FFF78AFB7E
:103590003B689B683A68928A92B213441B78FB732B
:1035A0003B689B8A9BB201339AB23B689A82FB7B51
:1035B00019467868FFF732FC00BF1037BD4680BD62
:1035C00080B584B000AF78607B681B795B01354AB9
:1035D0001344BB600023FB607B681B684FF48E7153
:1035E0001846FFF75FFB7B681B6808211846FFF74A
:1035F00025FC7B681B68B9681846FFF7BFFFBB68EE
:103600005B68002B48D11FE000BF7B681B684FF44C
:103610008E711846FFF75EFB034683F00103DBB2B1
:10362000002B05D0BB689B8A9BB2B3F5807FECD1A1
:10363000BB689B8A9BB2B3F5807F05D07B681B6813
:10364000B9681846FFF79AFFBB689B8A9AB2BB68B5
:103650009B7D9BB29A42D7D3BB689B8A9BB2B3F542
:10366000807F02D10F23FB6013E000BF7B681B68E3
:103670004FF48E711846FFF72DFB034683F00103CC
:10368000DBB2002BF2D17B681B680C211846FFF7D8
:10369000D5FBBB6800229A75FB6818461037BD46FB
:1036A00080BD00BF6C23002080B586B000AF78607D
:1036B0007B681B795B01284A13443B6100237B61D3
:1036C0007B681B684FF490711846FFF7EFFB7B682F
:1036D0001B684FF4AC711846FFF7E8FB7B6818686D
:1036E0003B6999683B699B7D1A46FFF7D7FC7B686D
:1036F0001B6808211846FFF799FC3B695B68002BA3
:1037000025D17B681B684FF490711846FFF7E6FBE4
:103710000346FB737B681B684FF4AC711846FFF7D8
:10372000DDFB0346BB73FB7B83F00103DBB2002BA5
:1037300005D0BB7B83F00103DBB2002BE1D1BB7B67
:10374000002B01D00F237B613B6900229A757B69B6
:1037500018461837BD4680BD6C23002080B586B062
:1037600000AFF860B9601346FB71FB681B795B0121
:10377000204A13447B61FB681B791E4A5B0113449A
:103780001C331B78002B0CD0B868FFF7DFFC034616
:1037900083F00103DBB2002B03D010233B613B69B4
:1037A00024E0F86800F028F80346002B03D011232A
:1037B0003B613B691AE07B69FA799A757B69BA6863
:1037C0009A607B6900229A82FB681B79094A5B0137
:1037D00013441C331B78002B04D0F868FFF764FFF8
:1037E000034603E0F868FFF7EBFE03461846183778
:1037F000BD4680BD6C23002080B483B000AF7860EC
:103800007B681B79074A5B01134416331B78002B36
:1038100014BF01230023DBB218460C37BD465DF808
:10382000047B70476C23002080B582B000AF7860C5
:103830007B681B684FF492711846FFF733FA7B6878
:103840001B684FF484711846FFF72CFA7B681B68DD
:1038500000211846FFF7F2FA00BF0837BD4680BDC9
:1038600090B583B000AF786039603B68DB7D002B9A
:1038700008D14FF484717868FFF714FA7868FFF77D
:10388000BFFA16E04FF484717868FFF70BFA3B68D3
:10389000DB683A68527ED2B29C187868FFF7B0FABB
:1038A000034623703B685B7EDBB20133DAB23B68D0
:1038B0005A760C37BD4690BD80B588B000AFF86031
:1038C000B96011461A460B46FB711346BB71FB6883
:1038D0001B795B01474A1344FB61FB699B7E83F0C4
:1038E0000103DBB2002B08D0BB7983F00103DBB20C
:1038F000002B02D0F868FFF797FFFB695B68002B8D
:1039000069D1FB681B684FF4A2711846FFF7CAF92A
:10391000FB681B684FF492711846FFF7DBF903460A
:10392000FB76FB681B684FF484711846FFF7D2F9E9
:103930000346BB76FB681B684FF4A2711846FFF77D
:10394000C9F903467B76BB7E83F00103DBB2002B13
:103950000BD07B7E83F00103DBB2002B05D0FB7E16
:1039600083F00103DBB2002BD2D1FB7E002B0FD101
:103970007B7E002B0CD1FB681B68F9691846FFF7AA
:103980006FFFFB69DA7DFB695B7EDBB29A42BFD8D1
:10399000FB690022DA75FB7E002B03D003237B61D9
:1039A0007B6922E07B7E002B03D00F237B617B6948
:1039B0001BE0FB699B7E002B06D0FB681B68002187
:1039C0001846FFF73BFA0DE0FB681B680421184618
:1039D000FFF734FA06E0FB681B684FF401711846E4
:1039E000FFF78EF900237B617B6918462037BD46BF
:1039F00080BD00BF6C23002080B586B000AFF860AA
:103A0000B96011461A460B46FB711346BB71002381
:103A10007B61FB681B684FF488711846FFF746FA14
:103A2000FB681B684FF4A2711846FFF73FFAFB686A
:103A30001B68FA79B9681846FFF754FBBB7983F025
:103A40000103DBB2002B06D0FB681B68002118467F
:103A5000FFF7ECFA05E0FB681B6820211846FFF72A
:103A600053FAFB681B79294A5B01134404331B6832
:103A7000002B3FD1FB681B684FF488711846FFF795
:103A80002DFA0346FB74FB681B684FF4A2711846BD
:103A9000FFF724FA0346BB74FB681B684FF492716E
:103AA0001846FFF71BFA03467B74FB7C83F0010387
:103AB000DBB2002B0BD0BB7C83F00103DBB2002B0D
:103AC00005D07B7C83F00103DBB2002BD2D1FB68F5
:103AD0001B790E4A5B011344173300221A707B7C5A
:103AE000002B01D003237B61BB7C002B09D00F236B
:103AF0007B6106E0FB681B684FF404711846FFF712
:103B00002BFA7B6918461837BD4680BD6C23002010
:103B100080B588B000AFF860B9601346FB71FB68F0
:103B20001B795B014A4A1344BB61FB681B79484A15
:103B30005B0113441C331B78002B0CD0B868FFF7D3
:103B400005FB034683F00103DBB2002B03D01023F7
:103B50007B617B6978E00023FB77BB695B68002BA6
:103B600017D0FB681B793A4A5B0113441C331B785E
:103B7000002B07D0FB681B684FF404711846FFF751
:103B8000FBF906E0FB681B684FF401711846FFF76C
:103B9000DDF8BB69DB7D002B25D0BB691B7E002BCC
:103BA0001FD0BB695B68002B17D0FB681B79284AC4
:103BB0005B0113441C331B78002B07D0FB681B6888
:103BC0004FF404711846FFF7C7F906E0FB681B685D
:103BD0004FF401711846FFF793F811237B617B695D
:103BE00032E00123FB77FB7F83F00103DBB2002B84
:103BF0000CD0BB69FA79DA75BB69BA68DA60BB695F
:103C000000225A76BB6900221A7605E0BB69BA68C1
:103C10001A61BB69FA791A76FB681B790C4A5B0159
:103C200013441C331B78002B07D0FB7FFA79B9684B
:103C3000F868FFF7E1FE034606E0FB7FFA79B96812
:103C4000F868FFF739FE034618462037BD4680BDA9
:103C50006C23002080B582B000AF78607B681B7950
:103C6000104A5B0113441C331B78002B16D17B6870
:103C70001B790C4A5B0113441A331B7883F0010350
:103C8000DBB2002B0AD07868FFF7CEFD7B681B798A
:103C9000044A5B0113441A3301221A7000BF08372B
:103CA000BD4680BD6C23002080B588B000AFF860B1
:103CB0000B467A60FB7201233B74FB7A3B767B6890
:103CC0007B61FB685B68FA68116807F110021046B7
:103CD000984700BF2037BD4680BD00BF80B586B085
:103CE00000AF78600B46FB7000233B72FB783B749F
:103CF0007B689B68FB607B6800229A757B685B68C9
:103D00007A68116807F108021046984700BF183713
:103D1000BD4680BD80B588B000AF786039604FF493
:103D200000717868FEF7FCFF0346002B38D04FF493
:103D300092717868FEF7CEFF0346002B30D04FF427
:103D400092717868FEF7AEFF4FF401717868FEF764
:103D5000FDFF3B689B7E83F00103DBB2002B03D0A9
:103D600004217868FFF76AF802233B727868FEF74F
:103D7000FDFF03467B613B68DB7D3B743B68DB6892
:103D8000FB603B680022DA753B6800221A763B68CC
:103D90005B683A68116807F108021046984754E0DA
:103DA00004217868FEF7BCFF0346002B4DD04FF48A
:103DB00084717868FEF78EFF0346002B45D0396882
:103DC0007868FFF74DFD3B68DA7D3B685B7EDBB2D0
:103DD0009A423AD13B681B7E002B1AD03B68DB68C5
:103DE000FB613B685B7EFB763B681A7E3B68DA755D
:103DF0003B681A693B68DA603B6800221A763B68C8
:103E000000225A76FB7EFA6919463868FFF74CFFA4
:103E10001BE03B689B7E83F00103DBB2002B03D0E9
:103E200004217868FFF70AF84FF401717868FEF70B
:103E30008DFF3B680022DA753B685B7ED9B23B6838
:103E4000DB681A463868FFF72FFF4FF48E717868E9
:103E5000FEF740FF0346002B1BD03B689B8A9AB2BB
:103E60003B689B7D9BB29A4204D239687868FFF721
:103E700085FB0EE04FF48E717868FEF713FF3B6808
:103E80009B7D002B05D03B689B7D19463868FFF76A
:103E900025FF4FF4A2717868FEF71CFF0346002B44
:103EA0001CD04FF4A2717868FEF7FCFE3B689B7E45
:103EB000002B03D000217868FEF7C0FF3B68DB7D54
:103EC000002B0BD03B680022DA753B685B7ED9B2D1
:103ED0003B68DB681A463868FFF7E6FE00BF20370C
:103EE000BD4680BD80B588B000AF786039604FF4C2
:103EF00092717868FEF7F2FF0346002B23D04FF44F
:103F000092717868FEF7D2FF02233B727868FFF760
:103F100043F803467B617868FFF7FAF80346DBB2A3
:103F20003B743B68DB68FB603B680022DA753B68EA
:103F300000221A763B685B683A68116807F108024C
:103F4000104698473DE04FF488717868FEF7C6FF49
:103F50000346002B35D04FF488717868FEF7A6FF32
:103F60007868FFF7D5F80346FB773B68DB7DFA7F7F
:103F70009A4226D13B681B7E002B18D03B68DB6839
:103F8000BB6120217868FEF7D3FF3B681A7E3B684F
:103F9000DA753B681A693B68DA603B6800221A767A
:103FA000FB7FBA6919463868FFF77EFE09E03B6877
:103FB0000022DA753B68DA68FB7F19463868FFF73C
:103FC00073FE4FF4A2717868FEF788FF0346002B5A
:103FD00016D04FF4A2717868FEF768FF3B68DB7D6E
:103FE000002B0DD03B680022DA757868FFF790F857
:103FF0000346D9B23B68DB681A463868FFF754FEBF
:104000004FF490717868FEF769FF0346002B11D0DA
:104010004FF490717868FEF749FF3B689B7D002B59
:1040200008D07868FFF750F80346DBB219463868C5
:10403000FFF754FE00BF2037BD4680BD80B500AFFE
:10404000074B1B7F002B04D005490648FFF74AFFAA
:1040500003E003490348FFF75DFE00BF80BD00BFDA
:104060006C2300200020004080B483B000AF0346E2
:10407000FB710B46BB7113467B710A49FB797A7958
:1040800051331B010B4404331A600649FB79BA799A
:1040900051331B010B441A6000BF0C37BD465DF85D
:1040A000047B70470070004080B582B000AF0346CB
:1040B0003960FB711D48FB793A68127802F0030100
:1040C0003A685278120102F0300211433A6892784D
:1040D000120202F4E06211433A68D278120302F449
:1040E000805211433A681279120402F4E02211431B
:1040F0003A685279120502F4801211433A689279B3
:10410000120602F080720A431B01034403F5A36305
:104110001A603B68D9793B681A7AFB791846FFF731
:10412000A3FF00BF0837BD4680BD00BF0070004040
:1041300080B483B000AF78604FF0A04318460C37CE
:10414000BD465DF8047B704780B584B000AF7860F1
:104150000B46FB703B1D1846FFF7EAFFF8607A68D4
:104160007968FB6801F5E07153F8213023F44031A0
:10417000FB6802F5E07243F822107A687968FB6800
:1041800001F5E07153F82130F97809041943FB680F
:1041900002F5E07243F8221000BF1037BD4680BD23
:1041A00080B582B000AF78607868FCF773FE034694
:1041B00018460837BD4680BD80B586B000AF0346BF
:1041C0000A46FB711346BB710023FB7500233B615C
:1041D000FB791846FCF77CFE38613B69002B60D107
:1041E000BB79012B04D0022B50D0002B32D058E0E9
:1041F00034493A6913465B0013440B441B78FB7542
:1042000030493A6913465B0013440B4401331B7871
:10421000002B11D02C482D4B1A6813469B001344D9
:104220005B002B4A1946FCF717FAF860FB68002B75
:1042300002D1274AFB79137022493A6913465B0081
:1042400013440B4402331978224A3B6913440A464B
:104250001A7026E01C4B1846FCF732FA1D4A3B69DF
:104260001344197817483A6913465B001344034412
:1042700002331B78994213D112493A6913465B0005
:1042800013440B4402331B78FB7509E00D493A696E
:1042900013465B0013440B4401331B78FB7500E0AD
:1042A00000BFFB7D002B08D00B4B1B68002B04D0FC
:1042B000094B1B68FA7D1046984700BF1837BD466A
:1042C00080BD00BFDC230020E023002090230020DD
:1042D0000024002004240020D823002080B582B0D0
:1042E00000AF78607B681B7802211846FFF764FFF7
:1042F00000BF0837BD4680BD80B584B000AF03461F
:10430000FB710023FB600023BB60AE4B1B78002BCE
:1043100004D0AC4B00221A70FCF772FDFB79172B0E
:1043200000F2B08101A252F823F000BF8D430200D9
:104330009943020099430200FB4302005D440200DE
:10434000A944020009450200274502003545020044
:10435000534502007745020095450200B945020029
:10436000D9450200D9450200D9450200D9450200CD
:10437000D9450200314602003D4602004F46020088
:10438000614602007946020079460200FCF738FDDA
:104390008D4AFB79137076E10020FCF7F7FC0346A9
:1043A000002B0CD00020FCF71DFDFB79022B02D165
:1043B0004FF4E16301E04FF47A63BB600AE0002050
:1043C000FCF702FDFB79022B01D1C82301E04FF479
:1043D000C873BB607C4AFB7913707C48BB687C4A1D
:1043E000A2FB03235B097B4A126802FB03F3002252
:1043F0001946FCF731F9F86045E10020FCF7C6FCEE
:104400000346002B0CD00020FCF7ECFCFB79032BBF
:1044100002D14FF4487301E04FF47A63BB600AE0C5
:104420000020FCF7D1FCFB79032B01D1C82301E06C
:104430004FF4C873BB60644AFB7913706348BB6870
:10444000634AA2FB03235B09624A126802FB03F37F
:1044500000221946FCF700F9F86014E10020FCF78F
:1044600095FC0346002B06D00020FCF7BBFC4FF464
:104470007A63BB6005E00020FCF7A6FC4FF4C8732C
:10448000BB60514AFB7913705048BB68504AA2FB8D
:1044900003235B094F4A126802FB03F3002219460B
:1044A000FCF7DAF8F860EEE00020FCF76FFC03465A
:1044B000002B0BD00020FCF795FCFB79052B01D1DC
:1044C000C82301E04FF47A63BB600AE00020FCF7E8
:1044D0007BFCFB79052B01D1C82301E04FF4C873A5
:1044E000BB60394AFB7913703848BB68384AA2FB75
:1044F00003235B09374A126802FB03F300221946C3
:10450000FCF7AAF8F860BEE00020FCF7A1FC2E4AF8
:10451000FB7913702D482F4B1B6800221946FCF7BE
:104520009BF8F860AFE00020FCF74EFC264AFB79D0
:104530001370A8E0234B01221A700120FCF788FCBD
:104540002248244B1B6800221946FCF785F8F860C6
:1045500099E01C4B01221A700120FCF779FC1B48E2
:104560001C4B1A6813469B00134400221946FCF7A3
:1045700073F8F86087E0134B01221A700120FCF7F2
:1045800067FC1248134B1B6800221946FCF764F8BD
:10459000F86078E00B4B01221A700120FCF758FC00
:1045A0000A480C4B1A6813469B0013440022194614
:1045B000FCF752F8F86066E0FCF736FC024AFB793B
:1045C000137060E08D2300208C23002098230020AE
:1045D0001F85EB51902300202D4B1846FCF770F8F7
:1045E000F860FB79C3F11103BB60BB68002B1BD0E3
:1045F000FB68002B18D1BB68012B11D92448BB687C
:10460000C82202FB03F3234AA2FB03235B09224ACD
:10461000126802FB03F300221946FCF71DF8F8604C
:104620000220FCF7D1FB2EE00220FCF7DBFB2AE0A6
:10463000FCF7E6FB194AFB79137024E0FCF7E0FB7A
:104640000020FCF7C1FB154AFB7913701BE0FCF757
:10465000D7FB0120FCF7B8FB104AFB79137012E07E
:10466000FCF7CEFB0020FCF7AFFB0120FCF7ACFB16
:104670000A4AFB79137006E0FCF7D6FB074AFB7980
:10468000137000E000BFFB6818461037BD4680BDC0
:10469000B82300201F85EB51902300208C2300209D
:1046A00080B582B000AF7860074B1B6803F0010350
:1046B000002B04D0054B1B781846FFF71DFE00BFEA
:1046C0000837BD4680BD00BF942300208C23002006
:1046D00080B582B000AF78600220FCF7B9FB00BF64
:1046E0000837BD4680BD00BF80B584B000AF03462B
:1046F000FB710023FB60084B1B6803F00103002BD8
:1047000004D0FB791846FFF7F7FDF860FB68184600
:104710001037BD4680BD00BF9423002080B586B011
:1047200000AFF860B9607A6000237B612B4ABB68F8
:1047300013602B4AFB6813602A4A7B681360FB688E
:1047400003F00203002B2BD000233B6108E0012281
:104750000121386900F056F878613B6901333B610B
:104760003B69002B02D17B69002BF0D07B69002BC9
:1047700007D1BB685B081A4601211B48FAF7A0FF66
:1047800078617B69002B02D1FBF704F878617B69C3
:10479000002B05D1154A00211548FBF729FF786148
:1047A000FB6803F00103002B01D0FCF75DFB7B6984
:1047B000002B05D10F4A00210F48FBF719FF786144
:1047C0007B69002B05D10D4A01210D48FBF710FF35
:1047D00078617B6918461837BD4680BD902300205C
:1047E00094230020D8230020A8800200DD4202008C
:1047F000A4800200A14602009C800200D146020073
:10480000A080020080B485B000AF78600B46FB70DA
:104810001346BB700023FB607B68002B35D1BB784F
:10482000012B09D1FB78012B04D17B68DBB20E335D
:10483000DBB200E00023BB70FB78012B04D0022B1D
:104840000BD0002B13D01CE014497A6813465B0090
:1048500013440B44BA781A7019E010497A68134669
:104860005B0013440B440133BA781A700FE00B4914
:104870007A6813465B0013440B440233BA781A700B
:1048800005E00723FB6000BF01E00723FB60FB6836
:1048900018461437BD465DF8047B7047DC230020C2
:1048A00080B582B000AF78607868FCF731FB0346D2
:1048B00003211846FFF748FC002318460837BD4679
:1048C00080BD00BF80B582B000AF01220021002072
:1048D000FFF798FF78607B68002B04D07B68072B7C
:1048E00001D07B681CE0072202210120FFF78AFF2C
:1048F00078607B68002B04D07B68072B01D07B6835
:104900000EE0042202210020FFF77CFF78607B6824
:10491000002B04D07B68072B01D07B6800E00023CC
:1049200018460837BD4680BD80B582B000AF012271
:1049300002210020FFF766FF78607B68002B04D01F
:104940007B68072B01D07B681CE007220221012035
:10495000FFF758FF78607B68002B04D07B68072B3B
:1049600001D07B680EE00A2200210020FFF74AFFF9
:1049700078607B68002B04D07B68072B01D07B68B4
:1049800000E0002318460837BD4680BD80B582B0E0
:1049900000AF78600120FFF703FC0346002B03D033
:1049A0007B6802221A700CE00020FFF7F9FB034637
:1049B000002B03D07B680B221A7002E07B68002278
:1049C0001A7000BF0837BD4680BD00BF80B582B0F9
:1049D00000AF0020FFF764FF78607B68002B04D0F5
:1049E0007B68062B01D07B680CE00120FFF758FFA5
:1049F00078607B68002B04D07B68062B01D07B6835
:104A000000E0002318460837BD4680BD80B584B05D
:104A100000AF78607B681B88102B02D0112B18D058
:104A20002FE01A4B1B68002B0DD1FFF74BFFF860EE
:104A3000FB68002B07D0164B1B68002B03D0144BD0
:104A40001B68F8689847114B1B6801330F4A1360C5
:104A500017E00E4B1B68013B0C4A13600B4B1B68A5
:104A6000002B0DD1FFF760FFF860FB68002B07D02B
:104A7000074B1B68002B03D0054B1B68F868984751
:104A800000BF00BF1037BD4680BD00BF0C24002012
:104A90000824002080B584B000AF7860396000231E
:104AA000FB600A4A7B6813603B68002B02D03868C1
:104AB000FFF76CFF064B1B68002B02D1FFF734FF9A
:104AC000F860FB6818461037BD4680BD08240020FA
:104AD0000C24002076DF704700BF18467ADF70474D
:104AE00000BF18467CDF704700BF18467FDF704765
:104AF00000BF1846A8DF704700BF1846A9DF7047FF
:104B000000BF1846ADDF704700BF184667DF70472B
:104B100000BF184632DF704700BF18463EDF7047BF
:104B200000BF184680B483B000AF78600B467B802E
:104B30007B887A68134418460C37BD465DF8047BC1
:104B4000704700BF80B483B000AF78607B68D3F853
:104B50001035DBB218460C37BD465DF8047B704754
:104B600080B483B000AF78607B689BB250339BB257
:104B70009B009BB218460C37BD465DF8047B70471E
:104B800080B485B000AF78600B46FB70FB78FB60AB
:104B90007B684FF47A5202FB03F2FB6822FA03F3BC
:104BA00018461437BD465DF8047B704790B583B056
:104BB00000AF786039607B681C683868FFF7D0FF09
:104BC000034619462046FFF7ADFF034618460C374B
:104BD000BD4690BD80B582B000AF786039607B681B
:104BE0001B681846FFF7AEFF034619463868FFF703
:104BF000C7FF034618460837BD4680BD80B586B05E
:104C000000AF3B78012262F303033B703B78012243
:104C100062F307133B70194803F015FA03469AB282
:104C20003B4616491846FFF75DFF78617B693B619B
:104C30003B69002B02D03869FAF7CEFD3B1D0822F4
:104C400000211846FAF77EFC1023BB806423FB800A
:104C500004233B814FF47A737B813B1D1846FFF799
:104C60003DFF78617B69FB60FB68002B02D0F86830
:104C7000FAF7B2FD00BF1837BD4680BDB88002000C
:104C800080B586B000AFF860B9601346FB800023A2
:104C90007B610DE000BFBA687B6913441B7818463E
:104CA000FBF786FE0346002BF5D17B6901337B6160
:104CB000FA887B699A42EDD800BF0D20FBF778FE99
:104CC0000346002BF9D100BF0A20FBF771FE034613
:104CD000002BF9D100BF1837BD4680BD80B584B028
:104CE00000AF3B1D042200211846FAF72BFC0A4BAB
:104CF0007B603B1D1946094802F066FEF860FB68C0
:104D0000BB60BB68002B02D0B868FAF765FD00BF36
:104D10001037BD4680BD00BF814C0200102400202A
:104D200080B584B000AF78607B681B78002B0ED113
:104D3000094B1B883B211846FFF7CCFEF860FB6847
:104D4000BB60BB68002B02D0B868FAF745FD00BF16
:104D50001037BD4680BD00BF9021002080B582B0D5
:104D600000AF78607868FAF737FD00BF0837BD46B6
:104D700080BD00BF80B58AB000AF3B1D1C22002162
:104D80001846FAF7DFFB00237B604FF48043BB60DB
:104D90004FF4C033FB6006233B7400237B82002367
:104DA0003B750A4BBB610A4BFB613B1D184602F089
